:020000040800F2
:100000000050002041340008DD2F0008DF2F0008D9
:10001000E12F0008E32F0008E52F00080000000092
:10002000000000000000000000000000E72F0008B2
:10003000E92F000800000000EB2F0008ED2F00085A
:10004000893400088934000889340008893400089C
:10005000893400088934000889340008893400088C
:10006000893400088934000889340008893400087C
:10007000893400088934000889340008893400086C
:10008000893400088934000889340008893400085C
:10009000F92F0008893400088934000889340008E1
:1000A000893400088934000889340008893400083C
:1000B000893400088934000889340008893400082C
:1000C000893400088934000889340008893400081C
:1000D000893400088934000889340008893400080C
:1000E00089340008893400088934000800000000C1
:1000F0000000000000000000000000000000000000
:0C01000000000000000000005FF808F1A3
:10010C0010B5054C237833B9044B13B10448AFF345
:10011C0000800123237010BD60010020000000004E
:10012C00D434000808B5034B1BB103490348AFF3A3
:10013C00008008BD0000000064010020D4340008D9
:10014C0010B504460E4B18784FF47A73B3FBF0F3EA
:10015C000C4A1068B0FBF3F000F08CFA68B90F2C65
:10016C0001D901200AE0002221464FF0FF3000F0B7
:10017C0041FA034B5C60002000E0012010BD00BF81
:10018C00000000201801002008B5074A136843F04E
:10019C0010031360032000F01BFA0020FFF7D0FFC0
:1001AC0002F0A4FE002008BD00200240034A1168A2
:1001BC00034B1B780B441360704700BFA003002057
:1001CC0000000020014B1868704700BFA0030020FE
:1001DC0030B482B00023019390F82430012B00F04E
:1001EC008B800246012380F824304B68062B29D8DB
:1001FC000568686B03EB8303053B1F249C4020EAD6
:10020C0004000C6804FA03F303436B630B68092BBB
:10021C0038D91568E86803EB43031E3B07249C4060
:10022C0020EA04008C6804FA03F30343EB600B68C8
:10023C00103B012B34D90020002382F8243002B06B
:10024C0030BC70470C2B0ED80568286B03EB83036E
:10025C00233B1F249C4020EA04000C6804FA03F39F
:10026C0003432B63D2E70568E86A03EB8303413B46
:10027C001F249C4020EA04000C6804FA03F3034397
:10028C00EB62C3E71568286903EB430307249C4022
:10029C0020EA04008C6804FA03F303432B61C6E7DD
:1002AC0013681648834205D0936A43F02003936287
:1002BC000120C1E7986810F4000F1BD1986840F436
:1002CC00000098600B68102B01D00020B4E70C4B99
:1002DC001B680C49A1FB03139B0C03EB8303590014
:1002EC00019102E0019B013B0193019B002BF9D191
:1002FC000020A1E700209FE70220A0E70024014096
:10030C001801002083DE1B4330B583B0002301931A
:10031C0003689A6812F0010F2ED19A6842F001021C
:10032C009A60174B1B68174AA2FB03239B0C019383
:10033C0002E0019B013B0193019B002BF9D1044688
:10034C00FFF740FF054623689B6813F0010F11D19E
:10035C00FFF738FF401B0228F5D9A36A43F01003BE
:10036C00A362E36A43F00103E362002384F82430C0
:10037C00012002E0002000E0002003B030BD00BFEF
:10038C001801002083DE1B4390F82430012B6AD027
:10039C0010B50446012380F82430FFF7B5FF024660
:1003AC0000285BD1A36A23F4407323F0010343F4C8
:1003BC008073A36223682D498B4227D0A16A21F454
:1003CC008011A162596811F4806F05D0A16A21F4E3
:1003DC00405141F48051A162A16A11F4805F2BD08D
:1003EC00E16A21F00601E162002184F824106FF02B
:1003FC00020119602368996801F46021B1F5602F3E
:10040C001DD0996841F4801199602AE0A1F58061B2
:10041C00496811F4702FD1D0A16A41F48011A16206
:10042C001349496811F4806FD6D0A16A21F4405168
:10043C0041F48051A162CFE70021E162D4E70B497E
:10044C008B4204D0996841F4A001996009E0A1F5B0
:10045C008061496811F4702FD3D1F3E7002384F83D
:10046C002430104610BD022210467047002801406F
:10047C000024014038B503689A6812F0010F01D1CD
:10048C00002038BD04469A6822F001029A60FFF7FA
:10049C0099FE054623689B6813F0010F0ED0FFF7F9
:1004AC0091FE401B0228F5D9A36A43F01003A36206
:1004BC00E36A43F00103E3620120E2E70020E0E796
:1004CC0000287FD038B50446836A002B33D02046F1
:1004DC00FFF7D0FFA36A13F010036DD100286BD186
:1004EC00A26A22F4885222F0020242F00202A262B4
:1004FC006268E1690A43E56842EA4502A168B1F520
:10050C00807F21D001291CD0616901291FD0256869
:10051C00696821F469410B436B6021688D682A4B33
:10052C002B4013438B60A368B3F5807F20D0012B45
:10053C001ED000211FE0C36280F8243002F026FD9B
:10054C00C5E74FF48073DFE74FF48073DCE735B910
:10055C00A169013943EA413343F40063D7E7A16A47
:10056C0041F02001A162E16A41F00101E162CEE7B4
:10057C002369013B19052568EB6A23F470030B43CF
:10058C00EB6223689968114B0B409A420BD0A36A1B
:10059C0023F0120343F01003A362E36A43F0010358
:1005AC00E36201200DE00023E362A36A23F003035E
:1005BC0043F00103A36204E0A36A43F01003A362B7
:1005CC00012038BD01207047FDF7E1FFFE0E1FFF33
:1005DC00074AD36823F4E0631B041B0C000200F4ED
:1005EC00E060184340F0BF6040F40030D0607047CA
:1005FC0000ED00E030B4174BDB68C3F30223C3F10A
:10060C000704042C28BF04241D1D062D18D9033BF8
:10061C004FF0FF3505FA04F421EA0401994005FA7C
:10062C0003F322EA0303194300280BDB0901C9B2C7
:10063C0000F1604000F5614080F8001330BC704759
:10064C000023E5E700F00F000901C9B2024B195471
:10065C00F4E700BF00ED00E014ED00E000F01F0235
:10066C00400901239340024A42F82030704700BFF2
:10067C0000E100E00138B0F1807F0AD2064B5860EF
:10068C00064AF02182F823100020986007221A6095
:10069C0070470120704700BF10E000E000ED00E063
:1006AC00042805D0054A136823F00403136070472F
:1006BC00024A136843F004031360704710E000E033
:1006CC00704708B5FFF7FCFF08BD0000F0B482B01E
:1006DC0000263546A1E0002C59D0012C00D1CE6863
:1006EC00FF2B68D88446FF2B68D8AC00DCF80020C0
:1006FC000F27A74022EA070206FA04F42243CCF89B
:10070C0000204A6812F0805F00F086805E4A94698F
:10071C0044F001049461926902F001020192019A81
:10072C00AC08A71C594A52F8272005F00307BF0054
:10073C004FF00F0C0CFA07FC22EA0C0C544A9042B6
:10074C0042D002F5806290427FD002F580629042E6
:10075C007DD002F58062904234D0042235E04D4FBA
:10076C00BC4214D00BD94C4FBC4210D007F580378B
:10077C00BC420CD0A7F58017BC42B1D107E0A7F55D
:10078C008017BC4203D007F58037BC42A8D18C68D7
:10079C007CB1012C08D042610826A1E7CE6808364E
:1007AC009EE7CE680C369BE70261082698E7002688
:1007BC0096E7042694E700F1040C94E7A5F10804ED
:1007CC00A40093E7032200E00022BA4042EA0C02A4
:1007DC0002342E4F47F824204A6812F4803F38D058
:1007EC002E4C22681A4322604A6812F4003F36D01D
:1007FC002A4C62681A4362604A6812F4801F34D033
:10080C00264CA2681A43A2604A6812F4001F32D028
:10081C00224CE2681343E36001350F2D31D80122DD
:10082C00AA400B6813409A42F6D14C68122CB8D0EF
:10083C0095D8022CB2D07FF64EAF032CB7D0112C2A
:10084C007FF44EAFCE6804364AE70122BDE70222A0
:10085C00BBE7124C226822EA03022260C4E70F4C69
:10086C00626822EA03026260C6E70C4CA26822EAC4
:10087C000302A260C8E7094CE26822EA0303E360C2
:10088C00CAE702B0F0BC7047001002400000014003
:10089C00000801400000211000003110000401404C
:1008AC0012B909040161704701617047002866D0D4
:1008BC00F0B587B0044690F82934C3B1032384F80B
:1008CC002934206800F0F3FF254655F8107B6E465E
:1008DC000FCD0FC62B683360231D0ECB384600F0AE
:1008EC00D7FF0021206800F0ECFF002315E080F812
:1008FC00283402F0FDFBE1E704EB4312012182F8FE
:10090C00291082F828309386002182F82B109163ED
:10091C00D1639A1C5201A15001330E2BECD9002348
:10092C0012E004EB4312002182F8291282F82832DB
:10093C00938682F82B12C2F83812C2F83C1203F1DB
:10094C0012025201A15001330E2BEAD9254655F85B
:10095C00107B6E460FCD0FC62B683360231D0ECB5C
:10096C00384600F0B0FF002584F82450012384F8A9
:10097C002934206801F0BBFA284607B0F0BD0120ED
:10098C00704790F82834012B10D010B50446012183
:10099C0080F8281402F0EBFC206801F0A6FA20681D
:1009AC0000F07DFF002084F8280410BD0220704761
:1009BC0090F82834012B0DD010B50446012380F893
:1009CC00283480F82410006801F089FA002084F89B
:1009DC00280410BD0220704738B54DB2002D1CDB29
:1009EC0001F07F04640104F50A74044401F07F01F2
:1009FC002170ED0F65702261E37090F82834012BA3
:100A0C0011D00546012380F828342146006800F0F7
:100A1C0070FF002085F8280438BD01F07F046401C4
:100A2C0028340444E2E70220F6E74AB2002A1BDB32
:100A3C0001F07F035B0103F50A73034401F07F01AE
:100A4C001970D20F5A7090F82824012A12D010B5C0
:100A5C000446012280F828241946006801F0DDF8CC
:100A6C00002084F8280410BD01F07F035B012833BB
:100A7C000344E3E70220704770B501F07F056C0179
:100A8C0004F50A7101440444C4F83C2205F1120235
:100A9C005201861883500023736084F8293284F83D
:100AAC00285225B1006801F03EFA002070BD0068A4
:100ABC0001F039FAF9E701F00F01123100EB4111A5
:100ACC008888704770B501F07F056C0104F128012E
:100ADC0001440444E263AA1C52018618835000238B
:100AEC007360012384F8293084F8285025B10068FC
:100AFC0001F019FA002070BD006801F014FAF9E752
:100B0C0070B582B004460023ADF80630ADF8043061
:100B1C002068B0F844309BB2ADF8063013F4004FA7
:100B2C0000F00D82BDF8065015F00F0540F0C280A4
:100B3C00BDF8063013F0100F50D003889BB2ADF8FF
:100B4C000430BDF8043013F4006F79D1BDF80430D3
:100B5C0013F4004FDCD0038823F070031B051B0D2E
:100B6C0003802068B0F8503094F8282203EBC203BD
:100B7C00063300EB4303D3F80034C3F30903C4F882
:100B8C004432002B7CD10021204602F0D9FA236894
:100B9C00B3F85020063203EB4203D4F838123E2946
:100BAC007CD9C1F34F1211F01F0F01D1013A92B24F
:100BBC006FEAC2626FEA524292B2C3F80024226812
:100BCC0013889BB223F4804323F0700383F44053C7
:100BDC0043F4004343F08003138099E703889BB2EE
:100BEC0023F4E14323F070039BB203802268B2F834
:100BFC00503094F8281003EBC103023302EB43038B
:100C0C00D3F80034C3F309036364E26B1344E36366
:100C1C000021204602F09EFA94F82430002B3FF479
:100C2C0077AF236C002B7FF473AF94F824302268D9
:100C3C0043F08003A2F84C30002384F8243067E79B
:100C4C00B0F8503094F8282203EBC203063300EBC3
:100C5C004303D3F80034C3F30903C4F84432B4F8A3
:100C6C002C2204F22C4101F0BBFA2268138823F0E9
:100C7C0070031B051B0D1380204602F059FA47E741
:100C8C00B4F82C22D4F83C1201F0AAFAD4F844227D
:100C9C00D4F83C321344C4F83C3274E7C1F34F022D
:100CAC0011F0010F01D0013292B2920292B2C3F84C
:100CBC00002484E730F825309BB2ADF80430BDF841
:100CCC00043013F4004F35D1BDF8043013F0800F0D
:100CDC003FF41EAF226832F825309BB223F4E14377
:100CEC0023F070039BB222F8253004EB451393F8E4
:100CFC003230002B40F0B2802068B0F8503004EB5A
:100D0C00451292F8282003EBC203023300EB430395
:100D1C00D3F80034C3F30903AA1C04EB421253604A
:100D2C00002B00F0C68004EB45118A8DC96B01F0D5
:100D3C00E5F8BEE030F8253023F070031B051B0DE1
:100D4C0020F8253004EB451393F83232D3B92068E0
:100D5C00B0F8503004EB451292F8282203EBC20392
:100D6C00063300EB4303B3F80064C6F3090686B3FD
:100D7C0004EB45113346B1F82C22D1F83C1201F0AA
:100D8C002FFA26E0206804EB451393F8282230F85C
:100D9C00223013F4804F42D0B0F8503003EBC20332
:100DAC00023300EB4303B3F80064C6F3090666BBD9
:100DBC00226804EB451393F8281232F8213023F003
:100DCC00F0031B051B0D43F4004343F0C00322F852
:100DDC00213005F112035B01E1184A6832444A6084
:100DEC0004EB4511D1F83C223244C1F83C22E358C3
:100DFC001BB1D1F838128E4228D204EB451393F86C
:100E0C002812204602F09CF95EE704EB45113346AC
:100E1C00B1F82E22D1F83C1201F0E2F9C8E7B0F893
:100E2C00503003EBC203063300EB4303B3F800640A
:100E3C00C6F30906002EBBD004EB45113346B1F8BE
:100E4C003022D1F83C1201F0CBF9B1E704EB45119B
:100E5C0091F828122046FFF70FFE35E7206804EBC7
:100E6C00451393F8282030F8223013F0400F46D069
:100E7C00B0F8503003EBC203023300EB4303D3F85A
:100E8C000034C3F30903AA1C04EB421253607BBB6E
:100E9C00226804EB451393F8281032F8213023F024
:100EAC00F0031B051B0D43F4404343F0800322F871
:100EBC0021302268B2F8503004EB451090F828101D
:100ECC0003EBC103023302EB4303D3F80024C2F358
:100EDC000902AB1C5B01E1184A60C16B0A44C26396
:100EEC00E35823BB90F82810204602F033F90FE6A4
:100EFC0004EB4511CA8DC96B01F000F8C8E7B0F8D6
:100F0C00503003EBC203063300EB4303D3F8003439
:100F1C00C3F30903AA1C04EB42125360002BB7D095
:100F2C0004EB45110A8EC96B00F0E8FFB0E704EB47
:100F3C00451595F828102046FFF7C4FDE8E500207C
:100F4C0002B070BD10B50446006800F0D2FF10F47A
:100F5C00004F45D1206800F0CCFF10F4806F43D1D6
:100F6C00206800F0C6FF10F4804F08D02268B2F859
:100F7C0044309BB223F480439BB2A2F844302068E7
:100F8C0000F0B7FF10F4005F08D02268B2F84430CC
:100F9C009BB223F400539BB2A2F84430206800F0BB
:100FAC00A8FF10F4805F30D1206800F0A2FF10F48D
:100FBC00006F49D1206800F09CFF10F4007F64D1D1
:100FCC00206800F096FF10F4807F08D02268B2F8F9
:100FDC0044309BB223F480739BB2A2F8443010BD12
:100FEC002046FFF78DFDB5E72268B2F844309BB27E
:100FFC0023F480639BB2A2F84430204602F0B9F887
:10100C0000212046FFF7D4FCAAE72268B2F8403052
:10101C009BB223F004039BB2A2F840302268B2F8D2
:10102C0040309BB223F008039BB2A2F8403020461C
:10103C0002F0BCF82268B2F844309BB223F480531F
:10104C009BB2A2F84430AFE72268B2F8403043F0CC
:10105C000803A2F840302268B2F844309BB223F463
:10106C0000639BB2A2F844302268B2F8403043F0DF
:10107C000403A2F84030206800F03BFF10F4805FBE
:10108C0098D1204602F082F894E72268B2F84430F6
:10109C009BB223F400739BB2A2F84430204602F0BA
:1010AC0062F88DE738B54AB2002A1BDB4B0103F519
:1010BC000A73034401249C7001F07F051D70D20F4C
:1010CC005A7090F82824A24218D00446012280F8C5
:1010DC0028241946006800F082FE4DB1002084F8E7
:1010EC00280438BD01F07F035B0128330344E1E79A
:1010FC0004F22C41206800F0FFFEEFE70220F0E73D
:10110C0010B54AB2002A1ADB4B0103F50A730344EB
:10111C0000249C7001F07F011970D20F5A7090F866
:10112C002824012A11D00446012280F828241946CB
:10113C00006800F08BFE002084F8280410BD01F03C
:10114C007F035B0128330344E2E70220F6E711F04A
:10115C00800F0CD001F07F014901283101445AB1B4
:10116C0001228A72CB801B0C0B8100207047490135
:10117C0001F50A710144F2E78A728B80F5E70000F1
:10118C0082B0084B1B68084AA2FB03235B0A00FBD6
:10119C0003F0019000BF019B5A1E0192002BF9D164
:1011AC0002B0704718010020D34D621070B582B0A8
:1011BC000446036813F0010F2CD0AB4B5B6803F0B3
:1011CC000C03042B1DD0A84B5B6803F00C03082BFD
:1011DC0012D06368B3F5803F41D0002B55D103F199
:1011EC00804303F504331A6822F480321A601A68BB
:1011FC0022F480221A6037E09B4B5B6813F4803F2B
:10120C00E7D0994B1B6813F4003F03D06368002BA5
:10121C0000F0AE81236813F0020F76D0924B5B681E
:10122C0013F00C0F5FD0904B5B6803F00C03082B92
:10123C0054D02369002B00F08A808C4B01221A6059
:10124C00FEF7C0FF0546884B1B6813F0020F75D1E3
:10125C00FEF7B8FF401B0228F5D903208BE1824A28
:10126C00136843F480331360636843B3FEF7AAFF3B
:10127C0005467D4B1B6813F4003FCBD1FEF7A2FF54
:10128C00401B6428F5D9032075E1B3F5A02F09D0D4
:10129C00754B1A6822F480321A601A6822F4802284
:1012AC001A60E1E703F18043A3F53C331A6842F47A
:1012BC0080221A601A6842F480321A60D4E7FEF772
:1012CC0081FF0546684B1B6813F4003FA2D0FEF764
:1012DC0079FF401B6428F5D903204CE1624B5B6815
:1012EC0013F4803FA5D1604B1B6813F0020F04D0A0
:1012FC002369012B01D001203DE15B4A136823F0E7
:10130C00F803616943EAC1031360236813F0080F03
:10131C0032D0A369002B5BD0554B01221A60FEF72B
:10132C0051FF0546504B5B6A13F0020F21D1FEF7BB
:10133C0049FF401B0228F5D903201CE14A4A1368D7
:10134C0023F0F803616943EAC1031360DDE7474BFF
:10135C0000221A60FEF736FF0546434B1B6813F05C
:10136C00020FD2D0FEF72EFF401B0228F5D9032026
:10137C0001E10120FFF704FF236813F0040F00F0D4
:10138C009780394BDB6913F0805F33D1364BDA69C8
:10139C0042F08052DA61DB6903F080530193019BC8
:1013AC000125344B1B6813F4807F25D0E368012B97
:1013BC0036D0002B4CD103F1804303F504331A6A69
:1013CC0022F001021A621A6A22F004021A622CE05C
:1013DC00274B00221A60FEF7F5FE0546224B5B6A8E
:1013EC0013F0020FC8D0FEF7EDFE401B0228F5D912
:1013FC000320C0E00025D4E71E4A136843F4807331
:10140C001360FEF7DFFE06461A4B1B6813F4807F51
:10141C00CCD1FEF7D7FE801B6428F5D90320AAE0B7
:10142C00114A136A43F001031362E36873B3FEF7C6
:10143C00C9FE06460C4B1B6A13F0020F37D1FEF7A0
:10144C00C1FE801B41F288339842F3D9032092E00D
:10145C00052B11D0044B1A6A22F001021A621A6A87
:10146C0022F004021A62E0E700100240000042423F
:10147C008004424200700040414B1A6A42F0040260
:10148C001A621A6A42F001021A62CEE7FEF79AFE5D
:10149C0006463B4B1B6A13F0020F08D0FEF792FE78
:1014AC00801B41F288339842F3D9032063E0E5B9FD
:1014BC00E369002B5ED0324A526802F00C02082A13
:1014CC005BD0022B17D02F4B00221A60FEF77AFE4E
:1014DC0004462B4B1B6813F0007F47D0FEF772FEBF
:1014EC00001B0228F5D9032045E0254AD36923F0D7
:1014FC008053D361DCE7234B00221A60FEF762FEB7
:10150C0005461F4B1B6813F0007F06D0FEF75AFEF2
:10151C00401B0228F5D903202DE0236AB3F5803F48
:10152C001AD017494B6823F47413226A606A024379
:10153C0013434B60134B01221A60FEF743FE044623
:10154C000F4B1B6813F0007F0ED1FEF73BFE001B08
:10155C000228F5D903200EE0094A536823F400331E
:10156C00A1680B435360DCE7002004E0002002E09C
:10157C00012000E0002002B070BD0120FBE700BF9D
:10158C00001002406000424210B487B0164C94E840
:10159C000F000DF1180C0CE90F00238AADF8043084
:1015AC00124B5B6803F00C02082A1AD1C3F3834276
:1015BC00624412F8102C13F4803F05D10C4800FB48
:1015CC0002F007B010BC7047084B5B68C3F3404394
:1015DC00634413F8143C074800FB02F0B0FBF3F033
:1015EC00EFE70448EDE700BFEC34000800100240C0
:1015FC0000093D0000127A00594B1B6803F00703E9
:10160C008B420CD2564A136823F007030B4313602A
:10161C00136803F007038B4201D00120704770B5AB
:10162C00036813F0020F06D04E4A536823F0F00300
:10163C008468234353600C460546036813F0010F7E
:10164C0052D04368012B23D0022B28D0454A126874
:10165C0012F0020F00F0828042494A6822F0030225
:10166C0013434B60FEF7AEFD06466B68012B1DD095
:10167C00022B2AD03B4B5B6813F00C0F34D0FEF7D7
:10168C00A1FD801B41F288339842F3D9032064E01A
:10169C00344A126812F4003FDED101205DE0314A79
:1016AC00126812F0007FD7D1012056E02D4B5B68F9
:1016BC0003F00C03042B17D0FEF784FD801B41F2C2
:1016CC0088339842F2D9032047E0264B5B6803F03D
:1016DC000C03082B08D0FEF775FD801B41F28833F4
:1016EC009842F2D9032038E01D4B1B6803F0070326
:1016FC00A3420CD91A4A136823F00703234313603F
:10170C00136803F00703A34201D0012025E02B68E6
:10171C0013F0040F06D0134A536823F4E063E9680E
:10172C000B4353602B6813F0080F07D00D4A536816
:10173C0023F46053296943EAC1035360FFF724FF84
:10174C00084B5B68C3F30313074AD35CD840074BC1
:10175C0018600020FEF7F4FC002070BD0120FCE7AF
:10176C000020024000100240003500081801002043
:10177C00014B1868704700BF1801002070B582B08B
:10178C000446036813F0010F34D03E4BDB6913F0B1
:10179C00805F48D13B4BDA6942F08052DA61DB69F9
:1017AC0003F080530193019B0125374B1B6813F405
:1017BC00807F3AD0334B1B6A13F4407311D06268AC
:1017CC0002F440729A420CD02E4A136A23F44070F1
:1017DC002E4901260E6000260E60106213F0010FD8
:1017EC0037D1284A136A23F4407361680B431362A0
:1017FC00002D3FD1236813F0020F06D0214A536805
:10180C0023F44043A1680B435360236813F0100F7B
:10181C0035D01C4A536823F48003E1680B435360B2
:10182C00002002B070BD0025BFE7174A136843F4CF
:10183C0080731360FEF7C6FC0646134B1B6813F44B
:10184C00807FB7D1FEF7BEFC801B6428F5D903203E
:10185C00E7E7FEF7B7FC06460A4B1B6A13F0020FCC
:10186C00BFD1FEF7AFFC801B41F288339842F3D90D
:10187C000320D6E7D36923F08053D361BAE7002065
:10188C00CFE700BF0010024000700040400442420D
:10189C0084B001A880E80E00002004B07047B0F8B6
:1018AC00403043F43F43A0F8403000207047B0F87C
:1018BC00403023F474535B045B0CA0F840300020E0
:1018CC0070470020704784B038B505AC84E80E0032
:1018DC000123A0F840300024A0F84040A0F8444078
:1018EC00A0F85040FFF7DBFF2046BDE8384004B0BD
:1018FC00704710B4CB78032B0FD8DFE803F0026DE0
:10190C0054600A7830F822309BB223F4EC4323F075
:10191C00700343F4007320F822300A7830F8223038
:10192C0023F0F0031B051B0D134343F4004343F05A
:10193C00800320F822308B7A002B40F0AF804B785C
:10194C00002B56D08A885208B0F850300C7803EB34
:10195C00C40300EB43035200C3F800240A7830F8A8
:10196C00223013F0400F0BD030F8223023F0F0036C
:10197C001B051B0D43F4004343F0C00320F8223039
:10198C000A7830F822309BB223F4E04323F0400372
:10199C0083F0200343F4004343F0800320F822300B
:1019AC00002010BC70470A7830F822309BB223F428
:1019BC00EC4323F070039BB220F82230ADE70A7899
:1019CC0030F822309BB223F4EC4323F0700343F441
:1019DC00C06320F82230A0E70A7830F822309BB29E
:1019EC0023F4EC4323F0700343F4806320F822309B
:1019FC0093E78A885208B0F850300C7803EBC40394
:101A0C00043300EB43035200C3F80024B0F8503009
:101A1C000A7803EBC203063300EB43030C693E2C3C
:101A2C0030D9C4F34F1214F01F0F01D1013A92B206
:101A3C006FEAC2626FEA524292B2C3F800240A788B
:101A4C0030F8223013F4804F0BD030F8223023F0D2
:101A5C00F0031B051B0D43F4404343F0800320F8B7
:101A6C0022300A7830F822309BB223F4804323F0E2
:101A7C00700383F4405343F4004343F0800320F895
:101A8C0022308DE7C4F34F0214F0010F01D0013264
:101A9C0092B2920292B2C3F80024D0E70A7830F8DE
:101AAC00223023F4F8731B051B0D43F4014343F060
:101ABC00800320F82230CA885208B0F850300C78D5
:101ACC0003EBC40300EB43035200C3F800240A8960
:101ADC005208B0F850300C7803EBC403043300EB1D
:101AEC0043035200C3F800244B78002B4BD10A78E7
:101AFC0030F8223013F4804F0BD030F8223023F022
:101B0C00F0031B051B0D43F4404343F0800320F806
:101B1C0022300A7830F8223013F0400F0BD030F816
:101B2C00223023F0F0031B051B0D43F4004343F05C
:101B3C00C00320F822300A7830F8223023F0F0036A
:101B4C001B051B0D43F4004343F0C00320F8223067
:101B5C000A7830F822309BB223F4804323F07003D0
:101B6C0083F4405348F28004234320F822300A784F
:101B7C0030F822309BB223F4E04323F0400323439C
:101B8C0020F822300CE70A7830F8223013F4804F1A
:101B9C000BD030F8223023F0F0031B051B0D43F45F
:101BAC00404343F0800320F822300A7830F822308A
:101BBC0013F0400F0BD030F8223023F0F0031B054C
:101BCC001B0D43F4004343F0C00320F822300A7885
:101BDC0030F8223023F0F0031B051B0D43F4404377
:101BEC0043F0800320F822300B7830F8232092B297
:101BFC0022F4E04222F0400248F28004224320F812
:101C0C0023200A7830F822309BB223F4804323F04F
:101C1C007003234320F82230C2E68B7A002B44D188
:101C2C004B780BB30A7830F8223013F0400F0BD0FE
:101C3C0030F8223023F0F0031B051B0D43F4004356
:101C4C0043F0C00320F822300A7830F822309BB2DF
:101C5C0023F4E04323F0400343F4004343F08003B8
:101C6C0020F82230002070470A7830F8223013F424
:101C7C00804F0BD030F8223023F0F0031B051B0DE6
:101C8C0043F4404343F0800320F822300A7830F8C4
:101C9C0022309BB223F4804323F0700343F40043BF
:101CAC0043F0800320F82230DCE710B44B78002B93
:101CBC004BD10A7830F8223013F4804F0BD030F827
:101CCC00223023F0F0031B051B0D43F4404343F07B
:101CDC00800320F822300A7830F8223013F0400FBD
:101CEC000BD030F8223023F0F0031B051B0D43F40E
:101CFC00004343F0C00320F822300A7830F8223039
:101D0C0023F0F0031B051B0D43F4004343F0C00309
:101D1C0020F822300B7830F8232092B222F4804243
:101D2C0022F0700248F28004224320F823200A7823
:101D3C0030F822309BB223F4E04323F040032343DA
:101D4C0020F82230002010BC70470A7830F822307E
:101D5C0013F4804F0BD030F8223023F0F0031B0526
:101D6C001B0D43F4404343F0800320F822300A78E3
:101D7C0030F8223013F0400F0BD030F8223023F023
:101D8C00F0031B051B0D43F4004343F0C00320F884
:101D9C0022300A7830F8223023F0F0031B051B0D9B
:101DAC0043F4404343F0800320F822300B7830F8A2
:101DBC00232092B222F4E04222F0400248F2800446
:101DCC00224320F823200A7830F822309BB223F4E7
:101DDC00804323F07003234320F82230B2E70A78C3
:101DEC008AB14B7813BB30F822309BB223F480437A
:101DFC0023F0700383F4805343F4004343F08003D7
:101E0C0020F8223010E030F822309BB223F48043CB
:101E1C0023F0400383F4805383F0100343F4004316
:101E2C0043F0800320F822300020704730F8223035
:101E3C009BB223F4E04323F0400383F0100343F4FC
:101E4C00004343F0800320F82230EDE74B781BB3BE
:101E5C000A7830F8223013F0400F0BD030F82230D3
:101E6C0023F0F0031B051B0D43F4004343F0C003A8
:101E7C0020F822300A7830F822309BB223F4E04369
:101E8C0023F0400383F0300343F4004343F080031A
:101E9C0020F82230002070470A7830F8223013F4F2
:101EAC00804F0BD030F8223023F0F0031B051B0DB4
:101EBC0043F4404343F0800320F822300A7830F892
:101ECC0022309BB223F4804323F0700383F44053FD
:101EDC0043F4004343F0800320F82230DAE711B9D1
:101EEC008023A0F84C300020704700207047002061
:101EFC007047B0F8440070470020704701335B1006
:101F0C0000EB420202F5806263B110B40C784878A1
:101F1C0044EA002422F8044B0231013B002BF5D19A
:101F2C0010BC70477047F8B58A694D78012D34D0D4
:101F3C000B69934280F0EA80D21A8A618A7A002A6D
:101F4C0040F0F480B0F850200C7802EBC40206325A
:101F5C0000EB42023E2B40F2DD80C3F34F1413F032
:101F6C001F0F01D1013CA4B26FEAC4646FEA544460
:101F7C00A4B2C2F800440A7830F822309BB223F4A1
:101F8C00804323F0700383F4405343F4004343F045
:101F9C00800320F822300020F8BD0F69974225D22B
:101FAC00D21B8A610E4604468B7A1BB30B7830F831
:101FBC00232012F0400F69D0002D37D1B0F85020FB
:101FCC0002EBC303063300EB43033E2F22D9C7F3C6
:101FDC004F1217F01F0F01D1013A92B26FEAC26291
:101FEC006FEA524292B2C3F8002428E000238B61BE
:101FFC001746D7E7BBB28A884969FFF77FFFB4F869
:10200C005030327803EBC203023304EB4303C3F8C2
:10201C0000742AE0C7F34F0217F0010F01D0013210
:10202C0092B2920292B2C3F8002408E0B0F85020A9
:10203C0002EBC303023300EB4303C3F80074328991
:10204C00BBB271692046FFF759FF7378002B4DD155
:10205C00327834F8223023F0F0031B051B0D43F4C7
:10206C00004343F0C00324F82230327834F8223095
:10207C009BB223F4E04323F0400383F0300343F49A
:10208C00004343F0800324F8223084E71DBBB0F8F2
:10209C00502002EBC303023300EB43033E2F0ED957
:1020AC00C7F34F1217F01F0F01D1013A92B26FEA2A
:1020BC00C2626FEA524292B2C3F8002414E0C7F332
:1020CC004F0217F0010F01D0013292B2920292B27C
:1020DC00C3F8002408E0B0F8502002EBC30302332D
:1020EC0000EB4303C3F80074F288A9E7012BBCD1C1
:1020FC00327834F8223023F0F0031B051B0D43F427
:10210C00404343F0800324F82230AEE700238B6178
:10211C00134613E7C3F34F0413F0010F01D001343E
:10212C00A4B2A402A4B2C2F8004424E7BDB9B0F82A
:10213C0050200C7802EBC402023200EB42023E2B20
:10214C0028D9C3F34F1413F01F0F01D1013CA4B2D3
:10215C006FEAC4646FEA5444A4B2C2F800444A78EB
:10216C0082BBB0F850200C7802EBC402063200EBB4
:10217C0042023E2B1AD9C3F34F1413F01F0F01D197
:10218C00013CA4B26FEAC4646FEA5444A4B2C2F82E
:10219C000044F0E6C3F34F0413F0010F01D00134F7
:1021AC00A4B2A402A4B2C2F80044D8E7C3F34F040B
:1021BC0013F0010F01D00134A4B2A402A4B2C2F8EE
:1021CC000044D8E6012A7FF4D6AEB0F850200C7843
:1021DC0002EBC402023200EB4202C2F80034CAE63F
:1021EC0001335B1000EB420202F5806204E01068E0
:1021FC0021F8020B013B0432002BF8D17047D0F8C8
:10220C0018321BB10020C3F814027047022070472B
:10221C0010B5D0F81842D0F81C325BB194F800021B
:10222C00FF2807D09B6894F8012221469847FF238A
:10223C0084F80032002010BD43230380004870470F
:10224C000800002043230380004870474C00002006
:10225C004323038000487047900000200A2303802A
:10226C0000487047D400002038B50446D0F8185206
:10227C0001F072F8C5F80C02D4F818324BB1D4F84E
:10228C001C32DB6805F50371D5F804029847002071
:10229C0038BD0220FCE7000070B505460C46D0F8AE
:1022AC0018620B7813F0600225D0202A07D1CA8857
:1022BC003AB9D0F81C329B68002248789847002025
:1022CC0070BD13F0800F0BD0D0F81C329B683146D8
:1022DC0060789847E2883146284600F059FCEEE7D2
:1022EC004B7886F80032CB8886F80132CA883146A2
:1022FC0000F063FCE3E74B780A2BE0D101220249A2
:10230C0000F046FCDBE700BF7C01002010B5044662
:10231C00812100F0BAFF0121204600F0B6FF822196
:10232C00204600F0B2FFD4F8183253B1D4F81C3266
:10233C005B689847D4F8180201F018F80023C4F829
:10234C001832002010BD38B50446037C73BB4FF423
:10235C0000730222812100F087FF4FF400730222E8
:10236C000121204600F080FF082303228221204611
:10237C0000F07AFF4FF4077000F0F4FF0546C4F844
:10238C00180248B3D4F81C321B6898470023C5F8D0
:10239C001432C5F81832237CA3B14023D5F804229B
:1023AC000121204600F0CAFF002038BD4023022244
:1023BC00812100F059FF402302220121204600F028
:1023CC0053FFD1E74FF40073D5F8042201212046C6
:1023DC0000F0B4FF0020E8E70120E6E719B1C0F8EF
:1023EC001C120020704702207047D0F81832C3F836
:1023FC000812C3F8102200207047D0F81832C3F826
:10240C00041200207047D0F818229AB108B5037C4A
:10241C003BB14023D2F80422012100F08FFF0020B1
:10242C0008BD4FF40073D2F80422012100F086FF9E
:10243C000020F5E70220704798B108B50346D0F8A4
:10244C00140210B10020C3F8140209B1C3F8101221
:10245C001846012380F8FC31027000F0ADFE00201C
:10246C0008BD0220704719B1C0F814120020704743
:10247C000220704708B500F0E9FE002008BD08B541
:10248C00D0F8143233B11B68984708B9002008BD46
:10249C000220FCE70220FAE708B5D0F814325B689A
:1024AC009847002008BD38B5044600F5027528464B
:1024BC0000F00CF90123C4F8F431B4F80E32C4F86E
:1024CC00F83194F8081201F01F03012B0ED03BB128
:1024DC00022B10D001F08001204600F0E4FE03E056
:1024EC002946204600F06BFA002038BD29462046CC
:1024FC0000F089FAF8E72946204600F0A0FAF3E745
:10250C0010B5044621BB1346D0F8F421032A01D0A0
:10251C00002010BDD0F80C11D0F8102191420CD82D
:10252C00D0F814321B6923B190F8FC21032A00D196
:10253C009847204600F058FBEAE7891AC0F80C11BE
:10254C008A4228BF0A4692B2194600F045FBDFE7E3
:10255C000A46D0F814329B69002BD9D090F8FC11A4
:10256C000329D5D111469847D2E710B50446002966
:10257C0046D11346D0F8F421022A05D094F8003243
:10258C00012B39D0002010BDC169026A914219D8C3
:10259C008169B1FBF2F302FB13132BB98A4203D806
:1025AC00D0F8F83199421AD3D4F81432DB682BB135
:1025BC0094F8FC21032A01D120469847204600F0CC
:1025CC001EFBDBE78A1AC26192B2194600F0EDFAE3
:1025DC0000231A461946204600F0B0FECEE7002232
:1025EC00114600F0E2FA0021C4F8F8110B460A4635
:1025FC00204600F0A3FEC1E7002384F80032C1E7B7
:10260C000A46D0F814325B69002BBBD090F8FC1151
:10261C000329B7D111469847B4E738B5044640238F
:10262C000022114600F020FE4025C4F810512B4624
:10263C0000228021204600F017FE2562012384F839
:10264C00FC31D4F818322BB1D4F814325B682179F0
:10265C0020469847002038BD01740020704790F840
:10266C00FC3180F8FD31042380F8FC3100207047E8
:10267C0090F8FD3180F8FC310020704708B590F8D7
:10268C00FC31032B01D0002008BDD0F81432DB69DB
:10269C00002BF8D09847F6E7002302E00133DBB2B9
:1026AC0001300278002AF9D1184670474B88012B6B
:1026BC000BD110B50446C0F80432D0F814329B6824
:1026CC009847204600F090FA10BD70470B780370C5
:1026DC004B7843708B78CA7803EB022343800B79D9
:1026EC004A7903EB022383808B79CA7903EB0223AB
:1026FC00C380704710B50446802100F0D4FD002142
:10270C00204600F0D0FD10BD30B583B004460D4618
:10271C004A88130A013B062B00F28180DFE803F0A4
:10272C000413277F7F637000D0F810321B680DF103
:10273C000601007C9847BDF8062012B1EB88002BEF
:10274C0071D103B030BD037C43B9D0F814329B6A0D
:10275C000DF10600984702234370ECE7D0F81432D1
:10276C00DB6A0DF10600984702234370E3E7D2B20F
:10277C00052A34D8DFE802F0030B131B232BD0F807
:10278C0010325B680DF10601007C9847D3E7D0F856
:10279C0010329B680DF10601007C9847CBE7D0F80E
:1027AC001032DB680DF10601007C9847C3E7D0F8C6
:1027BC0010321B690DF10601007C9847BBE7D0F87D
:1027CC0010325B690DF10601007C9847B3E7D0F835
:1027DC0010329B690DF10601007C9847ABE7294646
:1027EC00FFF788FFADE7037C33B9D0F814325B6B8D
:1027FC000DF1060098479EE72946FFF77BFFA0E7FF
:10280C00037C43B9D0F814321B6B0DF106009847CA
:10281C00072343708FE72946FFF76CFF91E72946A2
:10282C00FFF768FF8DE79A4228BF1A46ADF80620DD
:10283C000146204600F0ACF983E738B504468B8896
:10284C00E3B9CB88D3B98D7805F07F0590F8FC31CE
:10285C00032B0CD080F8FE51294600F053FD204686
:10286C0000F0C2F935B1022384F8FC3109E0FFF71E
:10287C0041FF06E0012384F8FC3102E02046FFF71B
:10288C0039FF38BD38B504460D468978254B19708B
:10289C00012909D890F8FC31022B09D0032B1CD04C
:1028AC002946FFF727FF02E02946FFF723FF38BD33
:1028BC0081B14160032380F8FC31FFF7E0FD022871
:1028CC0003D0204600F090F9F1E729462046FFF7A7
:1028DC0011FFECE700F088F9E9E789B14368994208
:1028EC001DD0D9B2FFF7D8FD0E4B19786160204688
:1028FC00FFF7C5FD02280DD0204600F075F9D6E78C
:10290C00022380F8FC314160FFF7C6FD204600F041
:10291C006BF9CCE729462046FFF7ECFEC7E700F041
:10292C0063F9C4E77D01002008B5CB88012B08D1E1
:10293C0090F8FC31022B07D0032B0DD0FFF7DAFEF9
:10294C0001E0FFF7D7FE08BD0146002341F8083F20
:10295C00012200F01DF9F6E70122011D00F018F923
:10296C00F1E708B590F8FC31023B012B0CD80123A0
:10297C00C360D0F804320BB10323C360022200F110
:10298C000C0100F005F908BDFFF7B4FEFBE710B52C
:10299C00044690F8FC31023B012B0DD84B88012BDF
:1029AC0009D10023C0F80432D0F814329B68984740
:1029BC00204600F019F910BDFFF79CFEFBE708B5A7
:1029CC004B78092B1CD8DFE803F012181B151B09D8
:1029DC00051B0F0CFFF798FE002008BDFFF72DFF1D
:1029EC00FAE7FFF74FFFF7E7FFF79EFFF4E7FFF774
:1029FC00B8FFF1E7FFF75AFEEEE7FFF7C8FFEBE78A
:102A0C00FFF778FEE8E738B504460D4690F8FC3140
:102A1C00032B11D10B79012B0BD8D0F814329B68F6
:102A2C009847EB880BB1002038BD204600F0DCF84D
:102A3C00F9E7FFF75FFEF6E7FFF75CFEF3E738B563
:102A4C0005460C468A880B7803F06003202B05D1D1
:102A5C00D0F814329B689847002038BDD1B2637807
:102A6C00012B25D0002B47D0032BF5D190F8FC314E
:102A7C00022B05D0032B0AD02146FFF73BFEEBE7D8
:102A8C000029E9D08029E7D000F00DFCE4E7638849
:102A9C0023B919B1802901D000F005FCD5F8143206
:102AAC009B68214628469847284600F09DF8D3E7B6
:102ABC0090F8FC31022B05D0032B0AD02146FFF7EE
:102ACC0019FEC9E70029C7D08029C5D000F0EBFB5F
:102ADC00C2E76388002BBFD111F07F0F03D12846CA
:102AEC0000F082F8B8E700F0ECFBD5F814329B68E4
:102AFC00214628469847F2E790F8FC31022B05D086
:102B0C00032B09D02146FFF7F5FDA5E711F07F0F48
:102B1C00A2D000F0C8FB9FE712F0800F11D101F09A
:102B2C007F04103400EB04140434284600F0D7FB67
:102B3C0070B10123236002222146284600F028F8B8
:102B4C008AE701F07F04013400EB04140434ECE751
:102B5C0000232360EFE7D0B170B50D46164604464E
:102B6C00FFF79AFD0130400080B2308028700323BB
:102B7C006B70022307E001345A1CD2B2E9540233C1
:102B8C00DBB20021A95421780029F4D170BD704723
:102B9C0010B513460222C0F8F4218361C3610A46C2
:102BAC00002100F0BDFB002010BD08B513460A46FD
:102BBC00002100F0B5FB002008BD10B51346032220
:102BCC00C0F8F421C0F80831C0F80C310A460021D5
:102BDC0000F0B4FB002010BD08B513460A460021D6
:102BEC0000F0ACFB002008BD08B50423C0F8F4319C
:102BFC0000231A46194600F093FB002008BD08B5C7
:102C0C000523C0F8F43100231A46194600F096FB50
:102C1C00002008BD2DE9F04188B0264B9A6942F09E
:102C2C0010029A619A6902F010020092009A9A6955
:102C3C0042F020029A619A6902F020020192019AF4
:102C4C009A6942F004029A619A6902F004020292B3
:102C5C00029A9A6942F008029A619B6903F0080390
:102C6C000393039BDFF8548000224FF460414046ED
:102C7C00FDF716FE104C002203212046FDF710FE36
:102C8C004FF460430493012705970026069602250E
:102C9C00079504A94046FDF719FD032304930597F6
:102CAC000696079504A92046FDF710FD08B0BDE86F
:102CBC00F08100BF00100240000C014000100140E8
:102CCC0082B00B4A002353600A4B1B680A49A1FBD4
:102CDC0003139B0C00FB03F0019053680093044B0F
:102CEC005B68009A9B1A019A9342F8D302B0704722
:102CFC00001000E01801002083DE1B4310B5094CC6
:102D0C00002201212046FDF7CBFD0C20FFF7D8FF58
:102D1C00012211462046FDF7C3FD0C20FFF7D0FF22
:102D2C0010BD00BF000C014010B5094C0022012160
:102D3C002046FDF7B5FD0C20FFF7C2FF012211461E
:102D4C002046FDF7ADFD0C20FFF7BAFF10BD00BF0C
:102D5C00000C014038B50546002402E0FFF7CEFF19
:102D6C000134072C09DCC4F1070345FA03F313F013
:102D7C00010FF3D1FFF7D8FFF2E738BDFEE70000F3
:102D8C0000B585B01348144B036000238360012207
:102D9C00C26043614FF46021C16143600261FDF781
:102DAC008FFB60B90023019301220292039301A9C6
:102DBC000848FDF70DFA38B905B05DF804FB4FF47F
:102DCC00AD710648FFF7DAFF4FF4B2710348FFF715
:102DDC00D5FF00BFA40300200024014018350008D3
:102DEC0000B595B001220A924FF480330B93002169
:102DFC000C910E920222119212934FF4E013139342
:102E0C000AA8FEF7D3F960BB0F23059302210691A4
:102E1C00002307934FF480620892099305A8FEF7EC
:102E2C00EBFB18BB122301934FF4004303930023D5
:102E3C00049301A8FEF7A2FCE8B9FEF799FC104B2D
:102E4C00A3FB00308009FDF715FC0420FDF728FCDE
:102E5C00002211464FF0FF30FDF7CCFB15B05DF8AA
:102E6C0004FB4FF492710748FFF788FF4FF49971F8
:102E7C000448FFF783FF4FF49D710248FFF77EFF74
:102E8C00D34D62101835000808B5FDF77DF9FFF732
:102E9C00A7FFFFF7BFFEFFF773FF00F0D5F80F4851
:102EAC00FDF772FA0E4AD36843F08073D3600D4A73
:102EBC00136843F0010313600B4C00224FF40051D4
:102ECC002046FDF7EDFC4120FFF744FF01224FF4B3
:102EDC0000512046FDF7E4FCEEE700BFA403002000
:102EEC00F0ED00E0001000E00010014000B583B0F0
:102EFC00244B9A6942F001029A619A6902F001022C
:102F0C000092009ADA6942F08052DA61DB6903F0D0
:102F1C0080530193019B0320FDF75AFB00221146BD
:102F2C006FF00B00FDF766FB002211466FF00A00F4
:102F3C00FDF760FB002211466FF00900FDF75AFB0C
:102F4C00002211466FF00400FDF754FB00221146DD
:102F5C006FF00300FDF74EFB002211466FF00100ED
:102F6C00FDF748FB002211464FF0FF30FDF742FB06
:102F7C00054A536823F0E06343F00073536003B0D9
:102F8C005DF804FB001002400000014002680E4B8B
:102F9C009A4200D0704700B587B003F56C439A692C
:102FAC0042F400729A619B6903F400730193019BD4
:102FBC00012302930323039302A90448FDF786FB24
:102FCC0007B05DF804FB00BF00240140000801407D
:102FDC007047FEE7FEE7FEE7FEE770477047704775
:102FEC0008B5FDF7E3F8FDF76CFB08BD08B5024822
:102FFC00FDF7A8FF08BD00BFC80D00200F4B1A68D5
:10300C0042F001021A6059680D4A0A405A601A6867
:10301C0022F0847222F480321A601A6822F4802220
:10302C001A605A6822F4FE025A604FF41F029A602A
:10303C00044B4FF000629A60704700BF00100240D2
:10304C000000FFF800ED00E010B5094C0022094922
:10305C002046FFF7F1F908492046FFF704FA074923
:10306C002046FFF7BBF92046FFF704FA10BD00BF5E
:10307C00D403002044010020E00000201C010020AB
:10308C00002070470020704738B505460C4C0022D4
:10309C004FF400512046FDF703FC2878FFF75AFE49
:1030AC0001224FF400512046FDF7FAFB054C29464E
:1030BC002046FFF7A2F92046FFF7A5F9002038BDFE
:1030CC0000100140D403002010B5064C0022064924
:1030DC002046FFF78AF905492046FFF78EF90020B4
:1030EC0010BD00BFD4030020E0090020F80500202B
:1030FC0002680E4B9A4200D0704700B583B003F5BE
:10310C00DA33DA6942F40002DA61DB6903F40003B2
:10311C000193019B002211461420FDF76BFA142039
:10312C00FDF79CFA03B05DF804FB00BF005C0040A7
:10313C0008B500F22C41D0F85C04FFF7B4F908BDD7
:10314C0008B500EB4113D3F83C22D0F85C04FFF730
:10315C00D7F908BD08B500EB4113DA6BD0F85C0465
:10316C00FFF703FA08BD08B5D0F85C04FFF786FA40
:10317C0008BD10B504460121D0F85C04FFF76CFAC9
:10318C00D4F85C04FFF749FA10BD000010B50446F2
:10319C00D0F85C04FFF763FAA36923B1024A136900
:1031AC0043F00603136110BD00ED00E008B5D0F844
:1031BC005C04FFF75DFA08BD10B504462048C0F862
:1031CC005C44C4F820021F4B0360082343600223B5
:1031DC0083600323C36000238361C3610362FDF733
:1031EC0065FB30BB182300221146D4F82002FDF7F2
:1031FC00AEFF582300228021D4F82002FDF7A7FF50
:10320C00C02300228121D4F82002FDF7A0FF4FF447
:10321C00887300220121D4F82002FDF798FF4FF4A7
:10322C00807300228221D4F82002FDF790FF002049
:10323C0010BD4FF497710448FFF7A0FDD2E700BF13
:10324C00C80D0020005C00402835000808B5D0F8F7
:10325C002002FDF796FB18B1022803D0022008BD0E
:10326C000020FCE70120FAE710B51C461346224665
:10327C00D0F82002FDF7B0FB18B1022803D00220D1
:10328C0010BD0020FCE70120FAE708B5D0F82002B9
:10329C00FDF7CBFB18B1022803D0022008BD00209B
:1032AC00FCE70120FAE708B5D0F82002FDF7FAFE9A
:1032BC0018B1022803D0022008BD0020FCE7012031
:1032CC00FAE708B5D0F82002FDF71AFF18B102286A
:1032DC0003D0022008BD0020FCE70120FAE7D0F85B
:1032EC00203211F0800F06D101F07F0103EB411168
:1032FC0091F82A02704701F07F0103EB411191F81C
:10330C002A00704708B5D0F82002FDF751FB18B120
:10331C00022803D0022008BD0020FCE70120FAE7B8
:10332C0008B5D0F82002FDF7CDFB18B1022803D068
:10333C00022008BD0020FCE70120FAE708B5D0F810
:10334C002002FDF799FB18B1022803D0022008BD1A
:10335C000020FCE70120FAE708B5D0F82002FDF7C1
:10336C00AAFB08BD004870478001002070477047D9
:10337C0012230B80004870472C01002004230B8083
:10338C00004870474001002008B50A4628B105499D
:10339C000548FFF7E0FB034808BD02490248FFF768
:1033AC00DAFBF8E7281200203C35000810B5044C75
:1033BC000A4621460348FFF7CEFB204610BD00BF4E
:1033CC00281200204835000808B50A4628B10549DE
:1033DC000548FFF7C0FB034808BD02490248FFF748
:1033EC00BAFBF8E7281200205C35000808B50A463D
:1033FC0028B105490548FFF7AEFB034808BD024953
:10340C000248FFF7A8FBF8E7281200206C350008EB
:10341C0008B50A4628B105490548FFF79CFB034847
:10342C0008BD02490248FFF796FBF8E72812002076
:10343C0078350008002103E00B4B5B5843500431F6
:10344C000A480B4B42189A42F6D30A4A02E0002370
:10345C0042F8043B084B9A42F9D3FFF7CFFD00F03A
:10346C000FF8FFF711FD70479035000800000020A1
:10347C00600100206001002028140020FEE70000FD
:10348C0070B500250C4E0D4CA41BA410A54209D1FF
:10349C0000F01AF800250A4E0A4CA41BA410A542F1
:1034AC0005D170BD56F8253098470135EEE756F832
:1034BC00253098470135F2E7883500088835000833
:1034CC00883500088C350008F8B500BFF8BC08BC7E
:1034DC009E467047F8B500BFF8BC08BC9E467047C6
:1034EC0002030405060708090A0B0C0D0E0F101039
:1034FC0001020000000000000000000001020304B3
:10350C000607080900000000010203042E2E2F53A9
:10351C0072632F6D61696E2E630000002E2E2F5387
:10352C0072632F757362645F636F6E662E63000047
:10353C0055575F4D6F64656D0000000053544D6925
:10354C0063726F656C656374726F6E696373000090
:10355C00303030303030303030303141000000000D
:10356C0043444320436F6E66696700004344432025
:0C357C00496E74657266616365000000B2
:043588003101000805
:04358C000D01000825
:10359000010000001000000009024300020100C009
:1035A0003209040000010202010005240010010597
:1035B00024010001042402020524060001070582FB
:1035C0000308001009040100020A000000070501B9
:1035D000024000000705810240000000090243008C
:1035E000020100C0320904000001020201000524AA
:1035F0000010010524010001042402020524060034
:10360000010705820308001009040100020A0000F6
:103610000007050102000200070581020002000008
:1036200009074300020104C032090400000102023C
:1036300001000524001001052401000104240202F8
:103640000524060001070582030800FF09040100A4
:10365000020A000000070501024000000705810280
:10366000400000000A0600020000004001000000C7
:103670005323000819230008A522000800000000B9
:103680001D2200080B22000875220008000000001F
:103690000000000000000000512200084522000840
:1036A0005D2200086922000800A24A04D530000803
:1036B0008D3000089130000895300008120100029A
:1036C000020200408304405700020102030100008F
:1036D000040309047D33000889330008B933000866
:1036E00095330008D5330008F93300081D3400086D
:04000005080034417A
:00000001FF
